{
  "_format": "hh-sol-artifact-1",
  "contractName": "TokenFactory",
  "sourceName": "contracts/TokenFactory.sol",
  "abi": [
    {
      "anonymous": false,
      "inputs": [
        {
          "indexed": false,
          "internalType": "address",
          "name": "tokenAddress",
          "type": "address"
        },
        {
          "indexed": false,
          "internalType": "string",
          "name": "name",
          "type": "string"
        },
        {
          "indexed": false,
          "internalType": "string",
          "name": "symbol",
          "type": "string"
        }
      ],
      "name": "TokenCreated",
      "type": "event"
    },
    {
      "inputs": [
        {
          "internalType": "string",
          "name": "name",
          "type": "string"
        },
        {
          "internalType": "string",
          "name": "symbol",
          "type": "string"
        }
      ],
      "name": "createToken",
      "outputs": [
        {
          "internalType": "address",
          "name": "",
          "type": "address"
        }
      ],
      "stateMutability": "nonpayable",
      "type": "function"
    },
    {
      "inputs": [
        {
          "internalType": "uint256",
          "name": "",
          "type": "uint256"
        }
      ],
      "name": "deployedTokens",
      "outputs": [
        {
          "internalType": "address",
          "name": "",
          "type": "address"
        }
      ],
      "stateMutability": "view",
      "type": "function"
    },
    {
      "inputs": [],
      "name": "getAllTokens",
      "outputs": [
        {
          "internalType": "address[]",
          "name": "",
          "type": "address[]"
        }
      ],
      "stateMutability": "view",
      "type": "function"
    }
  ],
  "bytecode": "0x6080604052348015600f57600080fd5b50611ea58061001f6000396000f3fe608060405234801561001057600080fd5b50600436106100415760003560e01c80632a5c792a146100465780632f2f2d5614610064578063ec81aadb14610094575b600080fd5b61004e6100c4565b60405161005b9190610371565b60405180910390f35b61007e600480360381019061007991906104ed565b610152565b60405161008b9190610574565b60405180910390f35b6100ae60048036038101906100a991906105c5565b610235565b6040516100bb9190610574565b60405180910390f35b6060600080548060200260200160405190810160405280929190818152602001828054801561014857602002820191906000526020600020905b8160009054906101000a900473ffffffffffffffffffffffffffffffffffffffff1673ffffffffffffffffffffffffffffffffffffffff16815260200190600101908083116100fe575b5050505050905090565b600080838360405161016390610274565b61016e929190610671565b604051809103906000f08015801561018a573d6000803e3d6000fd5b5090506000819080600181540180825580915050600190039060005260206000200160009091909190916101000a81548173ffffffffffffffffffffffffffffffffffffffff021916908373ffffffffffffffffffffffffffffffffffffffff1602179055507fffc04f682c7b287e4b552dacd4b833d7c33dc0549cd6da84388408e4830c0562818585604051610223939291906106a8565b60405180910390a18091505092915050565b6000818154811061024557600080fd5b906000526020600020016000915054906101000a900473ffffffffffffffffffffffffffffffffffffffff1681565b611782806106ee83390190565b600081519050919050565b600082825260208201905092915050565b6000819050602082019050919050565b600073ffffffffffffffffffffffffffffffffffffffff82169050919050565b60006102d8826102ad565b9050919050565b6102e8816102cd565b82525050565b60006102fa83836102df565b60208301905092915050565b6000602082019050919050565b600061031e82610281565b610328818561028c565b93506103338361029d565b8060005b8381101561036457815161034b88826102ee565b975061035683610306565b925050600181019050610337565b5085935050505092915050565b6000602082019050818103600083015261038b8184610313565b905092915050565b6000604051905090565b600080fd5b600080fd5b600080fd5b600080fd5b6000601f19601f8301169050919050565b7f4e487b7100000000000000000000000000000000000000000000000000000000600052604160045260246000fd5b6103fa826103b1565b810181811067ffffffffffffffff82111715610419576104186103c2565b5b80604052505050565b600061042c610393565b905061043882826103f1565b919050565b600067ffffffffffffffff821115610458576104576103c2565b5b610461826103b1565b9050602081019050919050565b82818337600083830152505050565b600061049061048b8461043d565b610422565b9050828152602081018484840111156104ac576104ab6103ac565b5b6104b784828561046e565b509392505050565b600082601f8301126104d4576104d36103a7565b5b81356104e484826020860161047d565b91505092915050565b600080604083850312156105045761050361039d565b5b600083013567ffffffffffffffff811115610522576105216103a2565b5b61052e858286016104bf565b925050602083013567ffffffffffffffff81111561054f5761054e6103a2565b5b61055b858286016104bf565b9150509250929050565b61056e816102cd565b82525050565b60006020820190506105896000830184610565565b92915050565b6000819050919050565b6105a28161058f565b81146105ad57600080fd5b50565b6000813590506105bf81610599565b92915050565b6000602082840312156105db576105da61039d565b5b60006105e9848285016105b0565b91505092915050565b600081519050919050565b600082825260208201905092915050565b60005b8381101561062c578082015181840152602081019050610611565b60008484015250505050565b6000610643826105f2565b61064d81856105fd565b935061065d81856020860161060e565b610666816103b1565b840191505092915050565b6000604082019050818103600083015261068b8185610638565b9050818103602083015261069f8184610638565b90509392505050565b60006060820190506106bd6000830186610565565b81810360208301526106cf8185610638565b905081810360408301526106e38184610638565b905094935050505056fe608060405234801561001057600080fd5b5060405161178238038061178283398181016040528101906100329190610492565b81818160039081610043919061072b565b508060049081610053919061072b565b50505061006933620f424061007060201b60201c565b505061091d565b600073ffffffffffffffffffffffffffffffffffffffff168273ffffffffffffffffffffffffffffffffffffffff16036100e25760006040517fec442f050000000000000000000000000000000000000000000000000000000081526004016100d9919061083e565b60405180910390fd5b6100f4600083836100f860201b60201c565b5050565b600073ffffffffffffffffffffffffffffffffffffffff168373ffffffffffffffffffffffffffffffffffffffff160361014a57806002600082825461013e9190610888565b9250508190555061021d565b60008060008573ffffffffffffffffffffffffffffffffffffffff1673ffffffffffffffffffffffffffffffffffffffff168152602001908152602001600020549050818110156101d6578381836040517fe450d38c0000000000000000000000000000000000000000000000000000000081526004016101cd939291906108cb565b60405180910390fd5b8181036000808673ffffffffffffffffffffffffffffffffffffffff1673ffffffffffffffffffffffffffffffffffffffff16815260200190815260200160002081905550505b600073ffffffffffffffffffffffffffffffffffffffff168273ffffffffffffffffffffffffffffffffffffffff160361026657806002600082825403925050819055506102b3565b806000808473ffffffffffffffffffffffffffffffffffffffff1673ffffffffffffffffffffffffffffffffffffffff168152602001908152602001600020600082825401925050819055505b8173ffffffffffffffffffffffffffffffffffffffff168373ffffffffffffffffffffffffffffffffffffffff167fddf252ad1be2c89b69c2b068fc378daa952ba7f163c4a11628f55a4df523b3ef836040516103109190610902565b60405180910390a3505050565b6000604051905090565b600080fd5b600080fd5b600080fd5b600080fd5b6000601f19601f8301169050919050565b7f4e487b7100000000000000000000000000000000000000000000000000000000600052604160045260246000fd5b6103848261033b565b810181811067ffffffffffffffff821117156103a3576103a261034c565b5b80604052505050565b60006103b661031d565b90506103c2828261037b565b919050565b600067ffffffffffffffff8211156103e2576103e161034c565b5b6103eb8261033b565b9050602081019050919050565b60005b838110156104165780820151818401526020810190506103fb565b60008484015250505050565b6000610435610430846103c7565b6103ac565b90508281526020810184848401111561045157610450610336565b5b61045c8482856103f8565b509392505050565b600082601f83011261047957610478610331565b5b8151610489848260208601610422565b91505092915050565b600080604083850312156104a9576104a8610327565b5b600083015167ffffffffffffffff8111156104c7576104c661032c565b5b6104d385828601610464565b925050602083015167ffffffffffffffff8111156104f4576104f361032c565b5b61050085828601610464565b9150509250929050565b600081519050919050565b7f4e487b7100000000000000000000000000000000000000000000000000000000600052602260045260246000fd5b6000600282049050600182168061055c57607f821691505b60208210810361056f5761056e610515565b5b50919050565b60008190508160005260206000209050919050565b60006020601f8301049050919050565b600082821b905092915050565b6000600883026105d77fffffffffffffffffffffffffffffffffffffffffffffffffffffffffffffffff8261059a565b6105e1868361059a565b95508019841693508086168417925050509392505050565b6000819050919050565b6000819050919050565b600061062861062361061e846105f9565b610603565b6105f9565b9050919050565b6000819050919050565b6106428361060d565b61065661064e8261062f565b8484546105a7565b825550505050565b600090565b61066b61065e565b610676818484610639565b505050565b5b8181101561069a5761068f600082610663565b60018101905061067c565b5050565b601f8211156106df576106b081610575565b6106b98461058a565b810160208510156106c8578190505b6106dc6106d48561058a565b83018261067b565b50505b505050565b600082821c905092915050565b6000610702600019846008026106e4565b1980831691505092915050565b600061071b83836106f1565b9150826002028217905092915050565b6107348261050a565b67ffffffffffffffff81111561074d5761074c61034c565b5b6107578254610544565b61076282828561069e565b600060209050601f8311600181146107955760008415610783578287015190505b61078d858261070f565b8655506107f5565b601f1984166107a386610575565b60005b828110156107cb578489015182556001820191506020850194506020810190506107a6565b868310156107e857848901516107e4601f8916826106f1565b8355505b6001600288020188555050505b505050505050565b600073ffffffffffffffffffffffffffffffffffffffff82169050919050565b6000610828826107fd565b9050919050565b6108388161081d565b82525050565b6000602082019050610853600083018461082f565b92915050565b7f4e487b7100000000000000000000000000000000000000000000000000000000600052601160045260246000fd5b6000610893826105f9565b915061089e836105f9565b92508282019050808211156108b6576108b5610859565b5b92915050565b6108c5816105f9565b82525050565b60006060820190506108e0600083018661082f565b6108ed60208301856108bc565b6108fa60408301846108bc565b949350505050565b600060208201905061091760008301846108bc565b92915050565b610e568061092c6000396000f3fe608060405234801561001057600080fd5b50600436106100935760003560e01c8063313ce56711610066578063313ce5671461013457806370a082311461015257806395d89b4114610182578063a9059cbb146101a0578063dd62ed3e146101d057610093565b806306fdde0314610098578063095ea7b3146100b657806318160ddd146100e657806323b872dd14610104575b600080fd5b6100a0610200565b6040516100ad9190610aaa565b60405180910390f35b6100d060048036038101906100cb9190610b65565b610292565b6040516100dd9190610bc0565b60405180910390f35b6100ee6102b5565b6040516100fb9190610bea565b60405180910390f35b61011e60048036038101906101199190610c05565b6102bf565b60405161012b9190610bc0565b60405180910390f35b61013c6102ee565b6040516101499190610c74565b60405180910390f35b61016c60048036038101906101679190610c8f565b6102f7565b6040516101799190610bea565b60405180910390f35b61018a61033f565b6040516101979190610aaa565b60405180910390f35b6101ba60048036038101906101b59190610b65565b6103d1565b6040516101c79190610bc0565b60405180910390f35b6101ea60048036038101906101e59190610cbc565b6103f4565b6040516101f79190610bea565b60405180910390f35b60606003805461020f90610d2b565b80601f016020809104026020016040519081016040528092919081815260200182805461023b90610d2b565b80156102885780601f1061025d57610100808354040283529160200191610288565b820191906000526020600020905b81548152906001019060200180831161026b57829003601f168201915b5050505050905090565b60008061029d61047b565b90506102aa818585610483565b600191505092915050565b6000600254905090565b6000806102ca61047b565b90506102d7858285610495565b6102e285858561052a565b60019150509392505050565b60006012905090565b60008060008373ffffffffffffffffffffffffffffffffffffffff1673ffffffffffffffffffffffffffffffffffffffff168152602001908152602001600020549050919050565b60606004805461034e90610d2b565b80601f016020809104026020016040519081016040528092919081815260200182805461037a90610d2b565b80156103c75780601f1061039c576101008083540402835291602001916103c7565b820191906000526020600020905b8154815290600101906020018083116103aa57829003601f168201915b5050505050905090565b6000806103dc61047b565b90506103e981858561052a565b600191505092915050565b6000600160008473ffffffffffffffffffffffffffffffffffffffff1673ffffffffffffffffffffffffffffffffffffffff16815260200190815260200160002060008373ffffffffffffffffffffffffffffffffffffffff1673ffffffffffffffffffffffffffffffffffffffff16815260200190815260200160002054905092915050565b600033905090565b610490838383600161061e565b505050565b60006104a184846103f4565b90507fffffffffffffffffffffffffffffffffffffffffffffffffffffffffffffffff8110156105245781811015610514578281836040517ffb8f41b200000000000000000000000000000000000000000000000000000000815260040161050b93929190610d6b565b60405180910390fd5b6105238484848403600061061e565b5b50505050565b600073ffffffffffffffffffffffffffffffffffffffff168373ffffffffffffffffffffffffffffffffffffffff160361059c5760006040517f96c6fd1e0000000000000000000000000000000000000000000000000000000081526004016105939190610da2565b60405180910390fd5b600073ffffffffffffffffffffffffffffffffffffffff168273ffffffffffffffffffffffffffffffffffffffff160361060e5760006040517fec442f050000000000000000000000000000000000000000000000000000000081526004016106059190610da2565b60405180910390fd5b6106198383836107f5565b505050565b600073ffffffffffffffffffffffffffffffffffffffff168473ffffffffffffffffffffffffffffffffffffffff16036106905760006040517fe602df050000000000000000000000000000000000000000000000000000000081526004016106879190610da2565b60405180910390fd5b600073ffffffffffffffffffffffffffffffffffffffff168373ffffffffffffffffffffffffffffffffffffffff16036107025760006040517f94280d620000000000000000000000000000000000000000000000000000000081526004016106f99190610da2565b60405180910390fd5b81600160008673ffffffffffffffffffffffffffffffffffffffff1673ffffffffffffffffffffffffffffffffffffffff16815260200190815260200160002060008573ffffffffffffffffffffffffffffffffffffffff1673ffffffffffffffffffffffffffffffffffffffff1681526020019081526020016000208190555080156107ef578273ffffffffffffffffffffffffffffffffffffffff168473ffffffffffffffffffffffffffffffffffffffff167f8c5be1e5ebec7d5bd14f71427d1e84f3dd0314c0f7b2291e5b200ac8c7c3b925846040516107e69190610bea565b60405180910390a35b50505050565b600073ffffffffffffffffffffffffffffffffffffffff168373ffffffffffffffffffffffffffffffffffffffff160361084757806002600082825461083b9190610dec565b9250508190555061091a565b60008060008573ffffffffffffffffffffffffffffffffffffffff1673ffffffffffffffffffffffffffffffffffffffff168152602001908152602001600020549050818110156108d3578381836040517fe450d38c0000000000000000000000000000000000000000000000000000000081526004016108ca93929190610d6b565b60405180910390fd5b8181036000808673ffffffffffffffffffffffffffffffffffffffff1673ffffffffffffffffffffffffffffffffffffffff16815260200190815260200160002081905550505b600073ffffffffffffffffffffffffffffffffffffffff168273ffffffffffffffffffffffffffffffffffffffff160361096357806002600082825403925050819055506109b0565b806000808473ffffffffffffffffffffffffffffffffffffffff1673ffffffffffffffffffffffffffffffffffffffff168152602001908152602001600020600082825401925050819055505b8173ffffffffffffffffffffffffffffffffffffffff168373ffffffffffffffffffffffffffffffffffffffff167fddf252ad1be2c89b69c2b068fc378daa952ba7f163c4a11628f55a4df523b3ef83604051610a0d9190610bea565b60405180910390a3505050565b600081519050919050565b600082825260208201905092915050565b60005b83811015610a54578082015181840152602081019050610a39565b60008484015250505050565b6000601f19601f8301169050919050565b6000610a7c82610a1a565b610a868185610a25565b9350610a96818560208601610a36565b610a9f81610a60565b840191505092915050565b60006020820190508181036000830152610ac48184610a71565b905092915050565b600080fd5b600073ffffffffffffffffffffffffffffffffffffffff82169050919050565b6000610afc82610ad1565b9050919050565b610b0c81610af1565b8114610b1757600080fd5b50565b600081359050610b2981610b03565b92915050565b6000819050919050565b610b4281610b2f565b8114610b4d57600080fd5b50565b600081359050610b5f81610b39565b92915050565b60008060408385031215610b7c57610b7b610acc565b5b6000610b8a85828601610b1a565b9250506020610b9b85828601610b50565b9150509250929050565b60008115159050919050565b610bba81610ba5565b82525050565b6000602082019050610bd56000830184610bb1565b92915050565b610be481610b2f565b82525050565b6000602082019050610bff6000830184610bdb565b92915050565b600080600060608486031215610c1e57610c1d610acc565b5b6000610c2c86828701610b1a565b9350506020610c3d86828701610b1a565b9250506040610c4e86828701610b50565b9150509250925092565b600060ff82169050919050565b610c6e81610c58565b82525050565b6000602082019050610c896000830184610c65565b92915050565b600060208284031215610ca557610ca4610acc565b5b6000610cb384828501610b1a565b91505092915050565b60008060408385031215610cd357610cd2610acc565b5b6000610ce185828601610b1a565b9250506020610cf285828601610b1a565b9150509250929050565b7f4e487b7100000000000000000000000000000000000000000000000000000000600052602260045260246000fd5b60006002820490506001821680610d4357607f821691505b602082108103610d5657610d55610cfc565b5b50919050565b610d6581610af1565b82525050565b6000606082019050610d806000830186610d5c565b610d8d6020830185610bdb565b610d9a6040830184610bdb565b949350505050565b6000602082019050610db76000830184610d5c565b92915050565b7f4e487b7100000000000000000000000000000000000000000000000000000000600052601160045260246000fd5b6000610df782610b2f565b9150610e0283610b2f565b9250828201905080821115610e1a57610e19610dbd565b5b9291505056fea264697066735822122014471057636ffb85543efc229a93cd5b5d040ab222e2a05668ff3f2e7612090564736f6c634300081c0033a2646970667358221220c40fdac5f0d6f1b62ce81db08bcd9a463a3c2dac86ebe01b93bdb184977f400564736f6c634300081c0033",
  "linkReferences": {},
  "deployedLinkReferences": {}
}